:020000040000FA
:100000000C9462000C948A000C948A000C948A0070
:100010000C948A000C948A000C948A000C948A0038
:100020000C948A000C948A000C948A000C948A0028
:100030000C948A000C948A000C948A000C948A0018
:100040000C9460040C948A000C942E040C94080404
:100050000C948A000C948A000C948A000C948A00F8
:100060000C94AA040C948A000000000024002700CD
:100070002A0000000000250028002B0000000000DE
:1000800023002600290004040404040404040202DA
:100090000202020203030303030301020408102007
:1000A0004080010204081020010204081020000012
:1000B0000008000201000003040700000000000027
:1000C0000000C90511241FBECFEFD8E0DEBFCDBFB1
:1000D00023E0AEE3B1E001C01D92A230B207E1F728
:1000E00011E0A0E0B1E0EAEBF5E102C005900D926D
:1000F000AE33B107D9F710E0C2E6D0E004C02197D3
:10010000FE010E94E308C136D107C9F70E9402062A
:100110000C94DB0A0C94000008950895AF92BF92EE
:10012000CF92DF92EF92FF920F931F93CF93DF93C3
:100130006C017B018B01040F151FEB015E01AE18F2
:10014000BF08C017D10759F06991D601ED91FC9114
:100150000190F081E02DC6010995892B79F7C50141
:10016000DF91CF911F910F91FF90EF90DF90CF9093
:10017000BF90AF900895FC01538D448D252F30E042
:10018000842F90E0821B930B541710F0CF960895A4
:1001900001970895FC01918D828D981761F0A28DD1
:1001A000AE0FBF2FB11D5D968C91928D9F5F9F7397
:1001B000928F90E008958FEF9FEF08952FB7F894F6
:1001C0008091510290915202A0915302B091540239
:1001D0002FBF80935D0290935E02A0935F02B09365
:1001E000600285E592E00E94CA0097FF26C02FB703
:1001F000F8948091510290915202A0915302B091D3
:1002000054022FBF40915D0250915E0260915F02E7
:1002100070916002841B950BA60BB70B409159029D
:1002200050915A0260915B0270915C0284179507AD
:10023000A607B707B0F28FEF9FEF0895FC01918DED
:10024000828D981731F0828DE80FF11D858D90E039
:1002500008958FEF9FEF0895FC01918D228D892FD6
:1002600090E0805C9F4F821B91098F7399270895BE
:1002700085E592E00E942C0121E0892B09F420E021
:10028000822F089580E090E0892B29F00E943801A8
:1002900081110C9400000895FC01A48DA80FB92FC2
:1002A000B11DA35ABF4F2C91848D90E001968F739E
:1002B0009927848FA689B7892C93A089B1898C91BD
:1002C000837080648C93938D848D981306C002880C
:1002D000F389E02D80818F7D80830895EF92FF92D6
:1002E0000F931F93CF93DF93EC0181E0888F9B8D59
:1002F0008C8D98131AC0E889F989808185FF15C013
:100300009FB7F894EE89FF896083E889F989808135
:100310008370806480839FBF81E090E0DF91CF9104
:100320001F910F91FF90EF900895F62E0B8D10E026
:100330000F5F1F4F0F731127E02E8C8D8E110CC095
:100340000FB607FCFACFE889F989808185FFF5CFE0
:10035000CE010E944C01F1CFEB8DEC0FFD2FF11D72
:10036000E35AFF4FF0829FB7F8940B8FEA89FB891D
:1003700080818062CFCFCF93DF93EC01888D88237B
:10038000B9F0AA89BB89E889F9898C9185FD03C0F8
:10039000808186FD0DC00FB607FCF7CF8C9185FFDD
:1003A000F2CF808185FFEDCFCE010E944C01E9CFD5
:1003B000DF91CF910895833081F028F4813099F056
:1003C0008230A9F008958730A9F08830C9F08430D0
:1003D000B1F4809180008F7D03C0809180008F7781
:1003E00080938000089584B58F7784BD089584B587
:1003F0008F7DFBCF8091B0008F778093B000089500
:100400008091B0008F7DF9CF1F93CF93DF93282F7A
:1004100030E0F901E255FF4F8491F901E656FF4FB4
:10042000D491F901EA57FF4FC491CC23A9F0162FBC
:1004300081110E94DB01EC2FF0E0EE0FFF1FEE5860
:10044000FF4FA591B4918FB7F894EC91111108C0AA
:10045000D095DE23DC938FBFDF91CF911F9108955C
:10046000DE2BF8CFCF93DF9390E0FC01E656FF4FF1
:1004700024918A579F4FFC0184918823D1F090E00A
:10048000880F991FFC01E859FF4FA591B491FC0119
:10049000EE58FF4FC591D49161110EC09FB7F894EB
:1004A0008C91E22FE0958E238C932881E223E883C0
:1004B0009FBFDF91CF9108958FB7F894EC91E22B15
:1004C000EC938FBFF6CF3FB7F8948091CF01909116
:1004D000D001A091D101B091D20126B5A89B05C051
:1004E0002F3F19F00196A11DB11D3FBFBA2FA92FB3
:1004F000982F8827BC01CD01620F711D811D911DB0
:1005000042E0660F771F881F991F4A95D1F708951B
:100510008F929F92AF92BF92CF92DF92EF92FF9213
:100520004B015C010E9463026B017C010E9463022B
:100530006C197D098E099F09683E734081059105FC
:10054000A8F321E0821A9108A108B10888EEC80E2C
:1005500083E0D81EE11CF11C81149104A104B104B4
:1005600029F7FF90EF90DF90CF90BF90AF909F90D2
:100570008F90089520918401260F3327331F213255
:100580003105ECF42091A801FC0190E080E02430DA
:1005900069F082E00895A09184012191AC014C5949
:1005A0005E4FA40FB52FB11D2C930196861798F3BB
:1005B00080918401680F6093840180E0089581E058
:1005C00008951092A80181E08093AA011092A901D8
:1005D00061E082E10E94040261E083E10E94040282
:1005E000E9EBF0E080818E7F808380818D7F808346
:1005F00088E48093B80085E48093BC000895089552
:10060000E091DA018091D901E81730F4F0E0E25C82
:10061000FE4F808190E008958FEF9FEF08959091B5
:10062000DA018091D9012FEF3FEF981748F4E92FB5
:10063000F0E0E25CFE4F208130E09F5F9093DA01B2
:10064000C90108958091D9019091DA01891B990B14
:100650000895CF93DF93CB01EA01642F0E94BA0281
:10066000CE01DF91CF910895CF93DF931F92CDB745
:10067000DEB7698361E0CE0101960E94BA0281E093
:1006800090E00F90DF91CF91089590E080E0089581
:100690006091DF018EE10E9404026091DD018FE133
:1006A0000E9404026091DB0180E20C940402E1EEFE
:1006B000F1E0118210821382128215821482178255
:1006C0001682118610861386128615861486178662
:1006D0001686709682E0E135F80759F71092E0012E
:1006E0001092DF011092DE011092DD011092DC0108
:1006F0001092DB010C944803FC0101900020E9F703
:100700003197AF01481B590BBC0185E592E00C9471
:100710008E000F931F93CF93DF93EC018881998113
:10072000009759F02A813B812617370730F081E086
:10073000DF91CF911F910F9108958B016F5F7F4FD4
:100740000E940E0A009759F0998388831B830A83BD
:100750002C813D81232B59F7FC011082E8CF80E0EA
:10076000E7CFCF93DF9385ED8093BC00809160014C
:1007700090916101A0916201B09163010796A11D62
:10078000B11D23E0B695A795979587952A95D1F742
:100790002091BC0024FD03C01092A80136C04091F6
:1007A0006001509161016091620170916301452B7C
:1007B000462B472B69F30097A105B10541F025E3CE
:1007C0002A95F1F700000197A109B109E1CF8091C5
:1007D0005F0191E090935E018823B9F0C091B80069
:1007E000D091BA008091BC008A7B8093BC0060E00D
:1007F00082E10E94040260E083E10E9404020E9400
:10080000E102D093BA00C093B800DF91CF91089570
:100810001F920F920FB60F9211242F933F934F9375
:100820005F936F937F938F939F93AF93BF93EF9358
:10083000FF9385E592E00E944C01FF91EF91BF91FB
:10084000AF919F918F917F916F915F914F913F9168
:100850002F910F900FBE0F901F9018951F920F921F
:100860000FB60F9211242F938F939F93EF93FF93C3
:10087000E0916502F09166028081E0916B02F09157
:100880006C0282FD1BC0908180916E028F5F8F731E
:1008900020916F02821741F0E0916E02F0E0EB5A76
:1008A000FD4F958F80936E02FF91EF919F918F91F5
:1008B0002F910F900FBE0F901F9018958081F4CF4D
:1008C0001F920F920FB60F9211242F933F938F9385
:1008D0009F93AF93BF938091510290915202A09148
:1008E0005302B09154023091CE0123E0230F2D37F3
:1008F00058F50196A11DB11D2093CE0180935102A0
:1009000090935202A0935302B09354028091CF016E
:100910009091D001A091D101B091D2010196A11D79
:10092000B11D8093CF019093D001A093D101B093DA
:10093000D201BF91AF919F918F913F912F910F90D5
:100940000FBE0F901F90189526E8230F0296A11D49
:10095000B11DD2CF1F920F920FB60F9211242F9379
:100960003F934F935F936F937F938F939F93AF9337
:10097000BF93EF93FF938091B900887F803609F48D
:100980004AC0F0F5883209F4A7C018F5803109F49F
:100990009BC0B8F4882309F4F9C0883009F494C0E6
:1009A000FF91EF91BF91AF919F918F917F916F9147
:1009B0005F914F913F912F910F900FBE0F901F901D
:1009C0001895883109F488C0803251F78093A701C7
:1009D00014C0803409F49DC040F48033B9F38833E7
:1009E000F9F68093A70185ECB0C0803509F485C085
:1009F000883509F496C0883499F60E94B103D0CFA7
:100A0000883909F48CC038F5883729F050F48836D5
:100A100011F0803729F683E08093A8011092A60197
:100A200057C0883809F47BC0803919F0803809F044
:100A3000B7CF8091A601803208F071C0E091A60185
:100A400081E08E0F8093A6018091BB00F0E0EA5711
:100A5000FE4F80833DC0803B39F0E0F4803A09F4DA
:100A600079C0883A09F09CCF84E08093A801109265
:100A7000850110928401E091D501F091D60109958C
:100A80008091840181110FC081E0809384011092D4
:100A9000640109C0803C09F4A6CF883C09F4A3CFC7
:100AA000883B09F07DCFE091850181E08E0F809336
:100AB0008501F0E0EC59FE4F80818093BB0090915E
:100AC00085018091840129C08091CD018093BB0074
:100AD00085EC8093BC0064CF9091CC018091CB01D8
:100AE000981758F5E091CC0181E08E0F8093CC01EE
:100AF000F0E0E555FE4F8081E9CFE091CC0181E047
:100B00008E0F8093CC018091BB00F0E0E555FE4F45
:100B100080839091CC018091CB019817C8F285E831
:100B2000D8CFE091CC0181E08E0F8093CC018091F1
:100B3000BB00F0E0E555FE4F80838091AA01811152
:100B40005CCF81E08093A90184EA8093BC0010927D
:100B5000A80126CF85EC8093BC001092A80180915B
:100B6000A601803230F4E091A601F0E0EA57FE4F92
:100B700010826091A60170E0E091D301F091D40160
:100B800086E891E009951092A6010ACF1092A7017C
:100B900034CFE5E5F2E01382128288EE93E0A0E024
:100BA000B0E084839583A683B78328E131E0318365
:100BB000208325EC30E03587248724EC30E037872C
:100BC000268720EC30E0318B208B21EC30E0338B1A
:100BD000228B22EC30E0358B248B26EC30E0378BF7
:100BE000268B118E128E138E148EE2EFF2E013829A
:100BF000128284839583A683B7838AE291E09183EE
:100C000080830895CF93DF93CDB7DEB7A9970FB652
:100C1000F894DEBF0FBECDBF789484B5826084BDEA
:100C200084B5816084BD85B5826085BD85B58160F0
:100C300085BD80916E00816080936E00109281006E
:100C40008091810082608093810080918100816029
:100C500080938100809180008160809380008091EA
:100C6000B10084608093B1008091B0008160809376
:100C7000B00080917A00846080937A0080917A003D
:100C8000826080937A0080917A00816080937A00FC
:100C900080917A00806880937A001092C100E09180
:100CA0006502F091660282E08083E0916102F0913A
:100CB00062021082E0916302F09164028FEC808303
:100CC00010926D02E0916902F0916A0286E08083E1
:100CD000E0916702F0916802808180618083E091F9
:100CE0006702F0916802808188608083E0916702EA
:100CF000F0916802808180688083E0916702F091C2
:100D0000680280818F7D80831092DA011092D90170
:100D10001092D8011092D7010E94E1028CE890E075
:100D20009093D6018093D5018DE890E09093D40103
:100D30008093D30106E011E0A4E1EA2EA1E0FA2EAF
:100D4000F80180810E5F1F4F60E00E943202E016C2
:100D5000F106B1F761E08DE10E94320261E08EE1BF
:100D60000E94320261E08FE10E94320261E080E283
:100D70000E94320260E081E20E9432020E94570328
:100D8000FAE04F2E512C612C712C7BEB272E70E05A
:100D9000372EE7EA8E2EE0E09E2E85E592E00E9457
:100DA0002C0107970CF4D0C01BA21AA21DA21CA2F2
:100DB0001FA21EA270E060E0CE0182960E9489030D
:100DC0002AA13BA181112EC02115310519F0C901BD
:100DD0000E9485091BA21AA21FA21EA21DA21CA26C
:100DE0000E94DE000EA11FA197FD24C08A3091054C
:100DF00009F189831A820F5F1F4FB801CE018296D5
:100E00000E948903882361F32AA13BA18EA19FA19F
:100E1000BE016F5F7F4F820F931F0E94D40A1FA3F2
:100E20000EA3DECF1FA21EA26CE371E0C9010E94D7
:100E3000D40AD6CF0730110509F080C0EAA0FBA084
:100E40001A8219821C821B821E821D82E114F10407
:100E5000B1F067E070E0CE0101960E94890329811C
:100E60003A81811117C12115310519F0C9010E947C
:100E700085091A8219821E821D821C821B826D8145
:100E80007E8189819A8110E000E050E040E04617C1
:100E9000570708F006C1009709F403C1B1E0A0E0CC
:100EA000FC01E40FF51F2081213309F0B0E02B2F66
:100EB0003A2F042E02C0220F331F0A94E2F7022BAE
:100EC000132B4F5F5F4F4730510509F7009711F023
:100ED0000E9485098091DF019091E0012091DD0160
:100EE0003091DE01FC0153E0EE0FFF1F5A95E1F750
:100EF000E20FF31FEE0FFF1FEF51FE4F1183008330
:100F00004091DB015091DC014F5F5F4F483051054C
:100F10000CF0CAC05093DC014093DB010E944803EF
:100F200061E08DE10E94040261E070E080E090E009
:100F30000E94880260E08DE10E9404028AA19BA1C8
:100F4000009711F00E94850981EE91E030E020E0E9
:100F5000F901EE0FFF1FE80FF91F40815181452B6A
:100F600009F466C02F5F3F4F2830310589F740965E
:100F7000F2E081359F0751F7F12CE12C10E000E001
:100F8000C70123E0880F991F2A95E1F799A788A741
:100F9000E8A5F9A5E00FF11FEE0FFF1FEF51FE4F7F
:100FA000A080B1800B2C000CCC08DD08D7FE9CC0C3
:100FB0006DE285E592E00E946E0122273327A901A8
:100FC0002A193B094C095D0919A2FE01B1966F016E
:100FD000CA01B901A30192010E94C108605DF60136
:100FE00062936F01211531054105510589F7C1143F
:100FF000D10419F0C6010E947C030730110521F0CD
:1010000088E391E00E947C030F5F1F4F08301105B9
:1010100009F0BECF8AE391E00E947C03FFEFEF1A54
:10102000FF0A27E0E216F10409F0A8CF0E94570357
:10103000EFECF0E08491F1011491F40104910023AC
:10104000B1F081110E94DB01E02FF0E0EE0FFF1FF5
:10105000E458FF4FA591B4918C91182341F00E9460
:10106000570364EF71E080E090E00E94880268EE30
:1010700073E080E090E00E94880280E090E0892B9D
:1010800009F48BCE0E943801882309F47ECE0E9499
:1010900000007BCE1E830D83B701C9010E94D40AD4
:1010A000EECE30E020E005CF1092DC011092DB01A3
:1010B0002F5F3F4F283031052CF43093DE01209311
:1010C000DD012CCF1092DE011092DD0101968730F8
:1010D00091052CF49093E0018093DF011FCF1092D3
:1010E000E0011092DF011ACFA601950119A2CE01ED
:1010F00081966C01CA01B901A30192010E94C10845
:10110000605DF60162936F012115310541055105BE
:1011100089F76DCF2F923F924F925F926F927F929D
:101120008F929F92AF92BF92CF92DF92EF92FF92F7
:101130000F931F93CF93DF93CDB7DEB7CA1BDB0BA3
:101140000FB6F894DEBF0FBECDBF09942A88398848
:1011500048885F846E847D848C849B84AA84B9844F
:10116000C884DF80EE80FD800C811B81AA81B9815B
:10117000CE0FD11D0FB6F894DEBF0FBECDBFED016F
:101180000895A1E21A2EAA1BBB1BFD010DC0AA1FC8
:10119000BB1FEE1FFF1FA217B307E407F50720F0E0
:1011A000A21BB30BE40BF50B661F771F881F991F5B
:1011B0001A9469F760957095809590959B01AC01A4
:1011C000BD01CF010895EE0FFF1F0590F491E02DB2
:1011D00009940F931F93CF93DF938230910510F4FE
:1011E00082E090E0E0910003F091010330E020E024
:1011F000B0E0A0E0309799F42115310509F44AC018
:10120000281B390B24303105D8F58A819B81611563
:10121000710589F1FB0193838283FE0111C0408136
:1012200051810281138148175907E0F04817590787
:1012300099F4109761F012960C93129713961C93E1
:101240003296CF01DF91CF911F910F9108950093B6
:10125000000310930103F4CF2115310551F042171B
:10126000530738F0A901DB019A01BD01DF01F80144
:10127000C1CFEF01F9CF9093010380930003CDCF4D
:10128000FE01E20FF31F81939193225031093983BC
:101290002883D7CF2091FE023091FF02232B41F407
:1012A00020910201309103013093FF022093FE024E
:1012B00020910001309101012115310541F42DB734
:1012C0003EB74091040150910501241B350BE0917C
:1012D000FE02F091FF02E217F307A0F42E1B3F0B72
:1012E0002817390778F0AC014E5F5F4F2417350798
:1012F00048F04E0F5F1F5093FF024093FE02819310
:1013000091939FCFF0E0E0E09CCFCF93DF930097E5
:10131000E9F0FC01329713821282A0910003B09190
:101320000103ED0130E020E01097A1F4208131812C
:10133000820F931F2091FE023091FF022817390778
:1013400009F061C0F093FF02E093FE02DF91CF91BC
:101350000895EA01CE17DF07E8F54A815B819E0117
:1013600041155105B1F7E901FB83EA834991599190
:10137000C40FD51FEC17FD0761F48081918102969F
:10138000840F951FE90199838883828193819B83D0
:101390008A83F0E0E0E012968D919C91139700977C
:1013A000B9F52D913C911197CD010296820F931FB3
:1013B0002091FE023091FF022817390739F6309745
:1013C00051F51092010310920003B093FF02A09315
:1013D000FE02BCCFD383C28340815181840F951F0D
:1013E000C817D90761F44E5F5F4F88819981480F14
:1013F000591F518340838A819B8193838283211566
:10140000310509F0B0CFF0930103E09300039ECFC4
:10141000FD01DC01C0CF13821282D7CFB0E0A0E083
:10142000E4E1FAE00C948C088C01009751F4CB01B4
:101430000E94E9088C01C801CDB7DEB7E0E10C9449
:10144000A808FC01E60FF71F9C0122503109E217A2
:10145000F30708F49DC0D901CD91DC911197C6170F
:10146000D70798F0C530D10530F3CE010497861721
:10147000970708F3C61BD70B2297C193D1936D939F
:101480007C93CF010E948509D6CF5B01AC1ABD0ABF
:101490004C018C0E9D1EA0910003B0910103512CB4
:1014A000412CF12CE12C109731F58091FE029091A6
:1014B000FF028815990509F05CC04616570608F02A
:1014C00058C08091000190910101009741F48DB7BF
:1014D0009EB74091040150910501841B950BE817BC
:1014E000F90708F055C0F093FF02E093FE02F901FE
:1014F00071836083A0CF8D919C91119712966C900F
:10150000129713967C901397A815B90559F56C019D
:1015100042E0C40ED11CCA14DB0420F1AC014A190C
:101520005B09DA011296159780F06282738251830B
:101530004083D9016D937C93E114F10471F0D701DC
:101540001396FC93EE93129776CF22968C0F9D1FE5
:10155000F90191838083F301EFCFF0930103E093CE
:10156000000369CF4816590608F42C017D01D30108
:101570009ACFCB010E94E9087C01009749F0AE01A7
:10158000B8010E94CB0AC8010E948509870153CF88
:1015900010E000E050CFFB01DC0102C001900D9291
:1015A00041505040D8F70895FB01DC0101900D92A5
:1015B0000020E1F70895F894FFCF000002038000B7
:1015C00016001700180019001A001B001C0000006C
:1015D00000006E018E00BB00BB012C01CA001E0181
:1015E00000000000340329034503FF0222030F0318
:0815F00000032C000D0A0000AD
:107E0000112484B714BE81FFF0D085E080938100F7
:107E100082E08093C00088E18093C10086E0809377
:107E2000C20080E18093C4008EE0C9D0259A86E02C
:107E300020E33CEF91E0309385002093840096BBD3
:107E4000B09BFECF1D9AA8958150A9F7CC24DD24C4
:107E500088248394B5E0AB2EA1E19A2EF3E0BF2EE7
:107E6000A2D0813461F49FD0082FAFD0023811F036
:107E7000013811F484E001C083E08DD089C08234E0
:107E800011F484E103C0853419F485E0A6D080C0E4
:107E9000853579F488D0E82EFF2485D0082F10E0AE
:107EA000102F00270E291F29000F111F8ED06801E7
:107EB0006FC0863521F484E090D080E0DECF843638
:107EC00009F040C070D06FD0082F6DD080E0C81688
:107ED00080E7D80618F4F601B7BEE895C0E0D1E017
:107EE00062D089930C17E1F7F0E0CF16F0E7DF06D8
:107EF00018F0F601B7BEE89568D007B600FCFDCFD4
:107F0000A601A0E0B1E02C9130E011968C91119780
:107F100090E0982F8827822B932B1296FA010C0160
:107F200087BEE89511244E5F5F4FF1E0A038BF0790
:107F300051F7F601A7BEE89507B600FCFDCF97BE46
:107F4000E89526C08437B1F42ED02DD0F82E2BD052
:107F50003CD0F601EF2C8F010F5F1F4F84911BD097
:107F6000EA94F801C1F70894C11CD11CFA94CF0C13
:107F7000D11C0EC0853739F428D08EE10CD085E9AC
:107F80000AD08FE07ACF813511F488E018D01DD067
:107F900080E101D065CF982F8091C00085FFFCCF94
:107FA0009093C60008958091C00087FFFCCF809118
:107FB000C00084FD01C0A8958091C6000895E0E648
:107FC000F0E098E1908380830895EDDF803219F02E
:107FD00088E0F5DFFFCF84E1DECF1F93182FE3DFCA
:107FE0001150E9F7F2DF1F91089580E0E8DFEE27F6
:047FF000FF270994CA
:027FFE00040479
:00000001FF
